{
  "contractName": "ToDoList",
  "abi": [
    {
      "anonymous": false,
      "inputs": [
        {
          "indexed": true,
          "internalType": "address",
          "name": "user",
          "type": "address"
        },
        {
          "indexed": true,
          "internalType": "uint256",
          "name": "taskIndex",
          "type": "uint256"
        },
        {
          "indexed": false,
          "internalType": "string",
          "name": "task",
          "type": "string"
        },
        {
          "indexed": false,
          "internalType": "bool",
          "name": "isDone",
          "type": "bool"
        }
      ],
      "name": "TaskAdded",
      "type": "event"
    },
    {
      "anonymous": false,
      "inputs": [
        {
          "indexed": true,
          "internalType": "address",
          "name": "user",
          "type": "address"
        },
        {
          "indexed": true,
          "internalType": "uint256",
          "name": "taskIndex",
          "type": "uint256"
        },
        {
          "indexed": false,
          "internalType": "string",
          "name": "task",
          "type": "string"
        },
        {
          "indexed": false,
          "internalType": "bool",
          "name": "isDone",
          "type": "bool"
        }
      ],
      "name": "TaskCompleted",
      "type": "event"
    },
    {
      "inputs": [
        {
          "internalType": "string",
          "name": "_task",
          "type": "string"
        }
      ],
      "name": "addTask",
      "outputs": [],
      "stateMutability": "nonpayable",
      "type": "function"
    },
    {
      "inputs": [
        {
          "internalType": "uint256",
          "name": "_taskIndex",
          "type": "uint256"
        }
      ],
      "name": "getTask",
      "outputs": [
        {
          "components": [
            {
              "internalType": "string",
              "name": "task",
              "type": "string"
            },
            {
              "internalType": "bool",
              "name": "isDone",
              "type": "bool"
            }
          ],
          "internalType": "struct ToDoList.Task",
          "name": "",
          "type": "tuple"
        }
      ],
      "stateMutability": "view",
      "type": "function",
      "constant": true
    },
    {
      "inputs": [
        {
          "internalType": "uint256",
          "name": "_taskIndex",
          "type": "uint256"
        },
        {
          "internalType": "bool",
          "name": "_status",
          "type": "bool"
        }
      ],
      "name": "updateStatus",
      "outputs": [],
      "stateMutability": "nonpayable",
      "type": "function"
    },
    {
      "inputs": [
        {
          "internalType": "uint256",
          "name": "_taskIndex",
          "type": "uint256"
        }
      ],
      "name": "deleteTask",
      "outputs": [],
      "stateMutability": "nonpayable",
      "type": "function"
    },
    {
      "inputs": [],
      "name": "getTaskCount",
      "outputs": [
        {
          "internalType": "uint256",
          "name": "",
          "type": "uint256"
        }
      ],
      "stateMutability": "view",
      "type": "function",
      "constant": true
    }
  ],
  "bytecode": "0x608060405234801561001057600080fd5b50610c46806100206000396000f3fe608060405234801561001057600080fd5b50600436106100575760003560e01c80631d65e77e1461005c578063387008c21461008c578063560f3192146100a857806367238562146100c4578063c17a340e146100e0575b600080fd5b6100766004803603810190610071919061081f565b6100fe565b6040516100839190610a36565b60405180910390f35b6100a660048036038101906100a19190610848565b61024f565b005b6100c260048036038101906100bd919061081f565b6103c9565b005b6100de60048036038101906100d991906107da565b610477565b005b6100e861061e565b6040516100f59190610a58565b60405180910390f35b610106610667565b60008060003373ffffffffffffffffffffffffffffffffffffffff1673ffffffffffffffffffffffffffffffffffffffff168152602001908152602001600020838154811061017e577f4e487b7100000000000000000000000000000000000000000000000000000000600052603260045260246000fd5b90600052602060002090600202019050806040518060400160405290816000820180546101aa90610b41565b80601f01602080910402602001604051908101604052809291908181526020018280546101d690610b41565b80156102235780601f106101f857610100808354040283529160200191610223565b820191906000526020600020905b81548152906001019060200180831161020657829003601f168201915b505050505081526020016001820160009054906101000a900460ff161515151581525050915050919050565b806000803373ffffffffffffffffffffffffffffffffffffffff1673ffffffffffffffffffffffffffffffffffffffff16815260200190815260200160002083815481106102c6577f4e487b7100000000000000000000000000000000000000000000000000000000600052603260045260246000fd5b906000526020600020906002020160010160006101000a81548160ff021916908315150217905550813373ffffffffffffffffffffffffffffffffffffffff167f6a38781c1c7e997698a8840f85d7ab2994d36206866cce4b3a90c1df4e6199146000803373ffffffffffffffffffffffffffffffffffffffff1673ffffffffffffffffffffffffffffffffffffffff168152602001908152602001600020858154811061039d577f4e487b7100000000000000000000000000000000000000000000000000000000600052603260045260246000fd5b9060005260206000209060020201600001846040516103bd929190610a06565b60405180910390a35050565b6000803373ffffffffffffffffffffffffffffffffffffffff1673ffffffffffffffffffffffffffffffffffffffff168152602001908152602001600020818154811061043f577f4e487b7100000000000000000000000000000000000000000000000000000000600052603260045260246000fd5b90600052602060002090600202016000808201600061045e9190610683565b6001820160006101000a81549060ff0219169055505050565b6000803373ffffffffffffffffffffffffffffffffffffffff1673ffffffffffffffffffffffffffffffffffffffff168152602001908152602001600020604051806040016040528084848080601f016020809104026020016040519081016040528093929190818152602001838380828437600081840152601f19601f82011690508083019250505050505050815260200160001515815250908060018154018082558091505060019003906000526020600020906002020160009091909190915060008201518160000190805190602001906105569291906106c3565b5060208201518160010160006101000a81548160ff021916908315150217905550505060016000803373ffffffffffffffffffffffffffffffffffffffff1673ffffffffffffffffffffffffffffffffffffffff168152602001908152602001600020805490506105c79190610ab5565b3373ffffffffffffffffffffffffffffffffffffffff167fc0f5ccd4df78f7ec2432c9dba0c8284ec9bae7089fc570fd23564597ff921d5084846000604051610612939291906109d4565b60405180910390a35050565b60008060003373ffffffffffffffffffffffffffffffffffffffff1673ffffffffffffffffffffffffffffffffffffffff16815260200190815260200160002080549050905090565b6040518060400160405280606081526020016000151581525090565b50805461068f90610b41565b6000825580601f106106a157506106c0565b601f0160209004906000526020600020908101906106bf9190610749565b5b50565b8280546106cf90610b41565b90600052602060002090601f0160209004810192826106f15760008555610738565b82601f1061070a57805160ff1916838001178555610738565b82800160010185558215610738579182015b8281111561073757825182559160200191906001019061071c565b5b5090506107459190610749565b5090565b5b8082111561076257600081600090555060010161074a565b5090565b60008135905061077581610be2565b92915050565b60008083601f84011261078d57600080fd5b8235905067ffffffffffffffff8111156107a657600080fd5b6020830191508360018202830111156107be57600080fd5b9250929050565b6000813590506107d481610bf9565b92915050565b600080602083850312156107ed57600080fd5b600083013567ffffffffffffffff81111561080757600080fd5b6108138582860161077b565b92509250509250929050565b60006020828403121561083157600080fd5b600061083f848285016107c5565b91505092915050565b6000806040838503121561085b57600080fd5b6000610869858286016107c5565b925050602061087a85828601610766565b9150509250929050565b61088d81610ae9565b82525050565b61089c81610ae9565b82525050565b60006108ae8385610aa4565b93506108bb838584610aff565b6108c483610bd1565b840190509392505050565b60006108da82610a88565b6108e48185610a93565b93506108f4818560208601610b0e565b6108fd81610bd1565b840191505092915050565b6000815461091581610b41565b61091f8186610aa4565b9450600182166000811461093a576001811461094c5761097f565b60ff198316865260208601935061097f565b61095585610a73565b60005b8381101561097757815481890152600182019150602081019050610958565b808801955050505b50505092915050565b600060408301600083015184820360008601526109a582826108cf565b91505060208301516109ba6020860182610884565b508091505092915050565b6109ce81610af5565b82525050565b600060408201905081810360008301526109ef8185876108a2565b90506109fe6020830184610893565b949350505050565b60006040820190508181036000830152610a208185610908565b9050610a2f6020830184610893565b9392505050565b60006020820190508181036000830152610a508184610988565b905092915050565b6000602082019050610a6d60008301846109c5565b92915050565b60008190508160005260206000209050919050565b600081519050919050565b600082825260208201905092915050565b600082825260208201905092915050565b6000610ac082610af5565b9150610acb83610af5565b925082821015610ade57610add610b73565b5b828203905092915050565b60008115159050919050565b6000819050919050565b82818337600083830152505050565b60005b83811015610b2c578082015181840152602081019050610b11565b83811115610b3b576000848401525b50505050565b60006002820490506001821680610b5957607f821691505b60208210811415610b6d57610b6c610ba2565b5b50919050565b7f4e487b7100000000000000000000000000000000000000000000000000000000600052601160045260246000fd5b7f4e487b7100000000000000000000000000000000000000000000000000000000600052602260045260246000fd5b6000601f19601f8301169050919050565b610beb81610ae9565b8114610bf657600080fd5b50565b610c0281610af5565b8114610c0d57600080fd5b5056fea2646970667358221220d05ee6da63df90db7854acf5b9892b87162fc0ffbbd0e01e0a64d988a539f5d864736f6c63430008000033",
  "immutableReferences": {},
  "source": "// SPDX-License-Identifier: MIT\r\npragma solidity ^0.8.0;\r\n\r\ncontract ToDoList {\r\n    // Defining a structure to store a task\r\n    struct Task {\r\n        string task;\r\n        bool isDone;\r\n    }\r\n\r\n    mapping (address => Task[]) private Users;\r\n\r\n    // Defining function to add a task\r\n    function addTask(string calldata _task) external {\r\n        Users[msg.sender].push(Task({\r\n            task: _task,\r\n            isDone: false\r\n        }));\r\n\r\n        // Emit an event for task addition\r\n        emit TaskAdded(msg.sender, Users[msg.sender].length - 1, _task, false);\r\n    }\r\n\r\n    // Defining a function to get details of a task\r\n    function getTask(uint256 _taskIndex) external view returns (Task memory) {\r\n        Task storage task = Users[msg.sender][_taskIndex];\r\n        return task;\r\n    }\r\n\r\n    // Defining a function to update status of a task\r\n    function updateStatus(uint256 _taskIndex, bool _status) external {\r\n        Users[msg.sender][_taskIndex].isDone = _status;\r\n\r\n        // Emit an event for task completion\r\n        emit TaskCompleted(msg.sender, _taskIndex, Users[msg.sender][_taskIndex].task, _status);\r\n    }\r\n\r\n    // Defining a function to delete a task\r\n    function deleteTask(uint256 _taskIndex) external {\r\n        delete Users[msg.sender][_taskIndex];\r\n    }\r\n\r\n    // Defining a function to get task count.\r\n    function getTaskCount() external view returns (uint256) {\r\n        return Users[msg.sender].length;\r\n    }\r\n\r\n    // Defining events for task addition and completion\r\n    event TaskAdded(address indexed user, uint256 indexed taskIndex, string task, bool isDone);\r\n    event TaskCompleted(address indexed user, uint256 indexed taskIndex, string task, bool isDone);\r\n}\r\n",
  "sourcePath": "C:\\Users\\marti\\Documents\\projects\\to-do-list-2.0\\contracts\\TodoList.sol",
  "compiler": {
    "name": "solc",
    "version": "0.8.0+commit.c7dfd78e.Emscripten.clang"
  },
  "schemaVersion": "3.4.14",
  "updatedAt": "2023-07-26T16:17:16.181Z",
  "networkType": "ethereum",
  "devdoc": {
    "kind": "dev",
    "methods": {},
    "version": 1
  },
  "userdoc": {
    "kind": "user",
    "methods": {},
    "version": 1
  }
}